{
  "contractName": "demo",
  "abi": [
    {
      "anonymous": false,
      "inputs": [
        {
          "indexed": false,
          "internalType": "uint256",
          "name": "productID",
          "type": "uint256"
        },
        {
          "indexed": false,
          "internalType": "address",
          "name": "buyer",
          "type": "address"
        }
      ],
      "name": "bought",
      "type": "event"
    },
    {
      "anonymous": false,
      "inputs": [
        {
          "indexed": false,
          "internalType": "uint256",
          "name": "productID",
          "type": "uint256"
        }
      ],
      "name": "delivered",
      "type": "event"
    },
    {
      "anonymous": false,
      "inputs": [
        {
          "indexed": false,
          "internalType": "string",
          "name": "title",
          "type": "string"
        },
        {
          "indexed": false,
          "internalType": "uint256",
          "name": "productID",
          "type": "uint256"
        },
        {
          "indexed": false,
          "internalType": "address",
          "name": "seller",
          "type": "address"
        }
      ],
      "name": "registered",
      "type": "event"
    },
    {
      "inputs": [
        {
          "internalType": "uint256",
          "name": "",
          "type": "uint256"
        }
      ],
      "name": "products",
      "outputs": [
        {
          "internalType": "string",
          "name": "title",
          "type": "string"
        },
        {
          "internalType": "string",
          "name": "desc",
          "type": "string"
        },
        {
          "internalType": "address payable",
          "name": "seller",
          "type": "address"
        },
        {
          "internalType": "uint256",
          "name": "productID",
          "type": "uint256"
        },
        {
          "internalType": "uint256",
          "name": "price",
          "type": "uint256"
        },
        {
          "internalType": "address",
          "name": "buyer",
          "type": "address"
        },
        {
          "internalType": "bool",
          "name": "delivered",
          "type": "bool"
        }
      ],
      "stateMutability": "view",
      "type": "function",
      "constant": true
    },
    {
      "inputs": [
        {
          "internalType": "string",
          "name": "_title",
          "type": "string"
        },
        {
          "internalType": "string",
          "name": "_desc",
          "type": "string"
        },
        {
          "internalType": "uint256",
          "name": "_price",
          "type": "uint256"
        }
      ],
      "name": "registerProduct",
      "outputs": [],
      "stateMutability": "nonpayable",
      "type": "function"
    },
    {
      "inputs": [
        {
          "internalType": "uint256",
          "name": "_productID",
          "type": "uint256"
        }
      ],
      "name": "buy",
      "outputs": [],
      "stateMutability": "payable",
      "type": "function",
      "payable": true
    },
    {
      "inputs": [
        {
          "internalType": "uint256",
          "name": "_productID",
          "type": "uint256"
        }
      ],
      "name": "delivery",
      "outputs": [],
      "stateMutability": "nonpayable",
      "type": "function"
    }
  ],
  "bytecode": "0x6080604052600160005534801561001557600080fd5b506111d7806100256000396000f3fe60806040526004361061003f5760003560e01c80631144fd72146100445780633153a15b1461006d5780637acc0b2014610096578063d96a094a146100d9575b600080fd5b34801561005057600080fd5b5061006b60048036038101906100669190610a24565b6100f5565b005b34801561007957600080fd5b50610094600480360381019061008f9190610b97565b6102fd565b005b3480156100a257600080fd5b506100bd60048036038101906100b89190610a24565b610541565b6040516100d09796959493929190610d36565b60405180910390f35b6100f360048036038101906100ee9190610a24565b6106f0565b005b3373ffffffffffffffffffffffffffffffffffffffff166001808361011a9190610de2565b8154811061012b5761012a610e16565b5b906000526020600020906006020160050160009054906101000a900473ffffffffffffffffffffffffffffffffffffffff1673ffffffffffffffffffffffffffffffffffffffff16146101b3576040517f08c379a00000000000000000000000000000000000000000000000000000000081526004016101aa90610e91565b60405180910390fd5b6001806001836101c39190610de2565b815481106101d4576101d3610e16565b5b906000526020600020906006020160050160146101000a81548160ff0219169083151502179055506001808261020a9190610de2565b8154811061021b5761021a610e16565b5b906000526020600020906006020160020160009054906101000a900473ffffffffffffffffffffffffffffffffffffffff1673ffffffffffffffffffffffffffffffffffffffff166108fc600180846102749190610de2565b8154811061028557610284610e16565b5b9060005260206000209060060201600401549081150290604051600060405180830381858888f193505050501580156102c2573d6000803e3d6000fd5b507f4b5e4108167a669a2da8b1edeb1bf605987224cec90eeca47f7f235104539f21816040516102f29190610eb1565b60405180910390a150565b60008111610340576040517f08c379a000000000000000000000000000000000000000000000000000000000815260040161033790610f3e565b60405180910390fd5b6103486108cc565b838160000181905250828160200181905250670de0b6b3a76400008261036e9190610f5e565b81608001818152505033816040019073ffffffffffffffffffffffffffffffffffffffff16908173ffffffffffffffffffffffffffffffffffffffff168152505060005481606001818152505060018190806001815401808255809150506001900390600052602060002090600602016000909190919091506000820151816000019080519060200190610403929190610937565b506020820151816001019080519060200190610420929190610937565b5060408201518160020160006101000a81548173ffffffffffffffffffffffffffffffffffffffff021916908373ffffffffffffffffffffffffffffffffffffffff160217905550606082015181600301556080820151816004015560a08201518160050160006101000a81548173ffffffffffffffffffffffffffffffffffffffff021916908373ffffffffffffffffffffffffffffffffffffffff16021790555060c08201518160050160146101000a81548160ff02191690831515021790555050506000808154809291906104f790610fb8565b91905055507f2f2d57060110e728629fcdcfd43a3b0f571b51ca1899668910d777e935601e3e8482606001513360405161053393929190611001565b60405180910390a150505050565b6001818154811061055157600080fd5b90600052602060002090600602016000915090508060000180546105749061106e565b80601f01602080910402602001604051908101604052809291908181526020018280546105a09061106e565b80156105ed5780601f106105c2576101008083540402835291602001916105ed565b820191906000526020600020905b8154815290600101906020018083116105d057829003601f168201915b5050505050908060010180546106029061106e565b80601f016020809104026020016040519081016040528092919081815260200182805461062e9061106e565b801561067b5780601f106106505761010080835404028352916020019161067b565b820191906000526020600020905b81548152906001019060200180831161065e57829003601f168201915b5050505050908060020160009054906101000a900473ffffffffffffffffffffffffffffffffffffffff16908060030154908060040154908060050160009054906101000a900473ffffffffffffffffffffffffffffffffffffffff16908060050160149054906101000a900460ff16905087565b34600180836106ff9190610de2565b815481106107105761070f610e16565b5b90600052602060002090600602016004015414610762576040517f08c379a0000000000000000000000000000000000000000000000000000000008152600401610759906110ec565b60405180910390fd5b3373ffffffffffffffffffffffffffffffffffffffff16600180836107879190610de2565b8154811061079857610797610e16565b5b906000526020600020906006020160020160009054906101000a900473ffffffffffffffffffffffffffffffffffffffff1673ffffffffffffffffffffffffffffffffffffffff161415610821576040517f08c379a000000000000000000000000000000000000000000000000000000000815260040161081890611158565b60405180910390fd5b33600180836108309190610de2565b8154811061084157610840610e16565b5b906000526020600020906006020160050160006101000a81548173ffffffffffffffffffffffffffffffffffffffff021916908373ffffffffffffffffffffffffffffffffffffffff1602179055507f2c9b5e9655a41ab13c5183c231239df125ecbd546a947624c913cfd43094906e81336040516108c1929190611178565b60405180910390a150565b6040518060e001604052806060815260200160608152602001600073ffffffffffffffffffffffffffffffffffffffff1681526020016000815260200160008152602001600073ffffffffffffffffffffffffffffffffffffffff1681526020016000151581525090565b8280546109439061106e565b90600052602060002090601f01602090048101928261096557600085556109ac565b82601f1061097e57805160ff19168380011785556109ac565b828001600101855582156109ac579182015b828111156109ab578251825591602001919060010190610990565b5b5090506109b991906109bd565b5090565b5b808211156109d65760008160009055506001016109be565b5090565b6000604051905090565b600080fd5b600080fd5b6000819050919050565b610a01816109ee565b8114610a0c57600080fd5b50565b600081359050610a1e816109f8565b92915050565b600060208284031215610a3a57610a396109e4565b5b6000610a4884828501610a0f565b91505092915050565b600080fd5b600080fd5b6000601f19601f8301169050919050565b7f4e487b7100000000000000000000000000000000000000000000000000000000600052604160045260246000fd5b610aa482610a5b565b810181811067ffffffffffffffff82111715610ac357610ac2610a6c565b5b80604052505050565b6000610ad66109da565b9050610ae28282610a9b565b919050565b600067ffffffffffffffff821115610b0257610b01610a6c565b5b610b0b82610a5b565b9050602081019050919050565b82818337600083830152505050565b6000610b3a610b3584610ae7565b610acc565b905082815260208101848484011115610b5657610b55610a56565b5b610b61848285610b18565b509392505050565b600082601f830112610b7e57610b7d610a51565b5b8135610b8e848260208601610b27565b91505092915050565b600080600060608486031215610bb057610baf6109e4565b5b600084013567ffffffffffffffff811115610bce57610bcd6109e9565b5b610bda86828701610b69565b935050602084013567ffffffffffffffff811115610bfb57610bfa6109e9565b5b610c0786828701610b69565b9250506040610c1886828701610a0f565b9150509250925092565b600081519050919050565b600082825260208201905092915050565b60005b83811015610c5c578082015181840152602081019050610c41565b83811115610c6b576000848401525b50505050565b6000610c7c82610c22565b610c868185610c2d565b9350610c96818560208601610c3e565b610c9f81610a5b565b840191505092915050565b600073ffffffffffffffffffffffffffffffffffffffff82169050919050565b6000610cd582610caa565b9050919050565b610ce581610cca565b82525050565b610cf4816109ee565b82525050565b6000610d0582610caa565b9050919050565b610d1581610cfa565b82525050565b60008115159050919050565b610d3081610d1b565b82525050565b600060e0820190508181036000830152610d50818a610c71565b90508181036020830152610d648189610c71565b9050610d736040830188610cdc565b610d806060830187610ceb565b610d8d6080830186610ceb565b610d9a60a0830185610d0c565b610da760c0830184610d27565b98975050505050505050565b7f4e487b7100000000000000000000000000000000000000000000000000000000600052601160045260246000fd5b6000610ded826109ee565b9150610df8836109ee565b925082821015610e0b57610e0a610db3565b5b828203905092915050565b7f4e487b7100000000000000000000000000000000000000000000000000000000600052603260045260246000fd5b7f6f6e6c792062757965722063616e20636f6e6669726d20697400000000000000600082015250565b6000610e7b601983610c2d565b9150610e8682610e45565b602082019050919050565b60006020820190508181036000830152610eaa81610e6e565b9050919050565b6000602082019050610ec66000830184610ceb565b92915050565b7f70726963652073686f756c642062652067726561746572207468616e207a657260008201527f6f00000000000000000000000000000000000000000000000000000000000000602082015250565b6000610f28602183610c2d565b9150610f3382610ecc565b604082019050919050565b60006020820190508181036000830152610f5781610f1b565b9050919050565b6000610f69826109ee565b9150610f74836109ee565b9250817fffffffffffffffffffffffffffffffffffffffffffffffffffffffffffffffff0483118215151615610fad57610fac610db3565b5b828202905092915050565b6000610fc3826109ee565b91507fffffffffffffffffffffffffffffffffffffffffffffffffffffffffffffffff821415610ff657610ff5610db3565b5b600182019050919050565b6000606082019050818103600083015261101b8186610c71565b905061102a6020830185610ceb565b6110376040830184610d0c565b949350505050565b7f4e487b7100000000000000000000000000000000000000000000000000000000600052602260045260246000fd5b6000600282049050600182168061108657607f821691505b6020821081141561109a5761109961103f565b5b50919050565b7f706c656173652070617920746865206578616374207072696365000000000000600082015250565b60006110d6601a83610c2d565b91506110e1826110a0565b602082019050919050565b60006020820190508181036000830152611105816110c9565b9050919050565b7f73656c6c65722063616e6e6f7420626520746865206275796572000000000000600082015250565b6000611142601a83610c2d565b915061114d8261110c565b602082019050919050565b6000602082019050818103600083015261117181611135565b9050919050565b600060408201905061118d6000830185610ceb565b61119a6020830184610d0c565b939250505056fea26469706673582212200987eb0bca7ecdf895bed4dbc361b1399a69cd3ceff14670e1152fea31d9af7864736f6c634300080b0033",
  "immutableReferences": {},
  "source": "// SPDX-License-Identifier: GPL-3.0\r\n\r\npragma solidity >= 0.5.0 < 0.9.0;\r\n\r\ncontract demo {\r\n    struct Product {\r\n        string title;\r\n        string desc;\r\n        address payable seller;\r\n        uint productID;\r\n        uint price;\r\n        address buyer;\r\n        bool delivered;\r\n    }\r\n    uint counter = 1;\r\n    Product[] public products;\r\n    event registered(string title, uint productID, address seller);\r\n    event bought(uint productID, address buyer);\r\n    event delivered(uint productID);\r\n\r\n    function registerProduct(string memory _title, string memory _desc, uint _price) public {\r\n        require(_price>0, \"price should be greater than zero\");\r\n        Product memory tempProduct;\r\n        tempProduct.title = _title;\r\n        tempProduct.desc = _desc;\r\n        tempProduct.price = _price * 10**18;\r\n        tempProduct.seller = payable(msg.sender);\r\n        tempProduct.productID = counter;\r\n        products.push(tempProduct);\r\n        counter++;\r\n        emit registered(_title, tempProduct.productID, msg.sender);\r\n    }\r\n\r\n    function buy(uint _productID) payable public {\r\n        require(products[_productID-1].price==msg.value, \"please pay the exact price\");\r\n        require(products[_productID-1].seller!=msg.sender, \"seller cannot be the buyer\");\r\n        products[_productID-1].buyer=msg.sender;\r\n        emit bought(_productID, msg.sender);\r\n    }\r\n\r\n    function delivery(uint _productID) public {\r\n        require(products[_productID-1].buyer==msg.sender, \"only buyer can confirm it\");\r\n        products[_productID-1].delivered = true;\r\n        products[_productID-1].seller.transfer(products[_productID-1].price);\r\n        emit delivered(_productID);\r\n    }\r\n}",
  "sourcePath": "C:\\Users\\Anjum\\Desktop\\EcommerceSmartContract\\project\\contracts\\demo.sol",
  "compiler": {
    "name": "solc",
    "version": "0.8.11+commit.d7f03943.Emscripten.clang"
  },
  "schemaVersion": "3.4.4",
  "updatedAt": "2022-06-12T10:33:29.767Z",
  "networkType": "ethereum",
  "devdoc": {
    "kind": "dev",
    "methods": {},
    "version": 1
  },
  "userdoc": {
    "kind": "user",
    "methods": {},
    "version": 1
  }
}